:1000000012C019C018C017C016C015C014C013C044
:1000100012C011C010C00FC00EC00DC00CC00BC06C
:100020000AC009C008C011241FBECFE5D4E0DEBF5E
:10003000CDBF02D052C0E4CF14BA8FEF87BB76E0B9
:1000400049E150E068E0B9E0A1E093B383B3282F21
:1000500030E02270307090FF18C02230310511F46A
:10006000B8BBF3CF232B89F778BB80E197E2FA0185
:100070003197F1F70197D9F768BB80E197E2FA0170
:100080003197F1F70197D9F7E0CF2230310589F4A4
:1000900078BB80E197E2FA013197F1F70197D9F740
:1000A000A8BB80E197E2FA013197F1F70197D9F700
:1000B000CCCF232B09F0C9CF18BA80E197E2FA011F
:1000C0003197F1F70197D9F768BB80E197E2FA0120
:0E00D0003197F1F70197D9F7B8CFF894FFCF29
:00000001FF
